{
  "_format": "hh-sol-artifact-1",
  "contractName": "FreelanceEscrow",
  "sourceName": "contracts/FreelanceEscrow.sol",
  "abi": [
    {
      "inputs": [
        {
          "internalType": "address",
          "name": "_router",
          "type": "address"
        },
        {
          "internalType": "address",
          "name": "_usdc",
          "type": "address"
        }
      ],
      "stateMutability": "nonpayable",
      "type": "constructor"
    },
    {
      "inputs": [],
      "name": "ECDSAInvalidSignature",
      "type": "error"
    },
    {
      "inputs": [
        {
          "internalType": "uint256",
          "name": "length",
          "type": "uint256"
        }
      ],
      "name": "ECDSAInvalidSignatureLength",
      "type": "error"
    },
    {
      "inputs": [
        {
          "internalType": "bytes32",
          "name": "s",
          "type": "bytes32"
        }
      ],
      "name": "ECDSAInvalidSignatureS",
      "type": "error"
    },
    {
      "inputs": [],
      "name": "ReentrancyGuardReentrantCall",
      "type": "error"
    },
    {
      "inputs": [
        {
          "internalType": "address",
          "name": "token",
          "type": "address"
        }
      ],
      "name": "SafeERC20FailedOperation",
      "type": "error"
    },
    {
      "anonymous": false,
      "inputs": [
        {
          "indexed": false,
          "internalType": "uint256",
          "name": "id",
          "type": "uint256"
        }
      ],
      "name": "Cancelled",
      "type": "event"
    },
    {
      "anonymous": false,
      "inputs": [
        {
          "indexed": true,
          "internalType": "uint256",
          "name": "id",
          "type": "uint256"
        },
        {
          "indexed": true,
          "internalType": "address",
          "name": "recipient",
          "type": "address"
        },
        {
          "indexed": false,
          "internalType": "uint256",
          "name": "amount",
          "type": "uint256"
        },
        {
          "indexed": false,
          "internalType": "uint256",
          "name": "nonce",
          "type": "uint256"
        }
      ],
      "name": "ClaimReleased",
      "type": "event"
    },
    {
      "anonymous": false,
      "inputs": [
        {
          "indexed": false,
          "internalType": "uint256",
          "name": "id",
          "type": "uint256"
        },
        {
          "indexed": false,
          "internalType": "uint256",
          "name": "amount",
          "type": "uint256"
        }
      ],
      "name": "Deposited",
      "type": "event"
    },
    {
      "anonymous": false,
      "inputs": [
        {
          "indexed": false,
          "internalType": "uint256",
          "name": "id",
          "type": "uint256"
        },
        {
          "indexed": false,
          "internalType": "address",
          "name": "client",
          "type": "address"
        },
        {
          "indexed": false,
          "internalType": "address",
          "name": "freelancer",
          "type": "address"
        }
      ],
      "name": "EscrowCreated",
      "type": "event"
    },
    {
      "anonymous": false,
      "inputs": [
        {
          "indexed": true,
          "internalType": "uint256",
          "name": "id",
          "type": "uint256"
        },
        {
          "indexed": true,
          "internalType": "uint256",
          "name": "installmentIndex",
          "type": "uint256"
        },
        {
          "indexed": false,
          "internalType": "uint256",
          "name": "amount",
          "type": "uint256"
        },
        {
          "indexed": false,
          "internalType": "address",
          "name": "recipient",
          "type": "address"
        }
      ],
      "name": "InstallmentReleased",
      "type": "event"
    },
    {
      "anonymous": false,
      "inputs": [
        {
          "indexed": false,
          "internalType": "uint256",
          "name": "id",
          "type": "uint256"
        }
      ],
      "name": "Refunded",
      "type": "event"
    },
    {
      "anonymous": false,
      "inputs": [
        {
          "indexed": false,
          "internalType": "uint256",
          "name": "id",
          "type": "uint256"
        },
        {
          "indexed": false,
          "internalType": "uint256",
          "name": "amount",
          "type": "uint256"
        }
      ],
      "name": "Released",
      "type": "event"
    },
    {
      "anonymous": false,
      "inputs": [
        {
          "indexed": true,
          "internalType": "uint256",
          "name": "escrowId",
          "type": "uint256"
        },
        {
          "indexed": true,
          "internalType": "address",
          "name": "actor",
          "type": "address"
        },
        {
          "indexed": false,
          "internalType": "string",
          "name": "reason",
          "type": "string"
        },
        {
          "indexed": false,
          "internalType": "string",
          "name": "action",
          "type": "string"
        }
      ],
      "name": "TransactionLog",
      "type": "event"
    },
    {
      "inputs": [],
      "name": "DOMAIN_SEPARATOR",
      "outputs": [
        {
          "internalType": "bytes32",
          "name": "",
          "type": "bytes32"
        }
      ],
      "stateMutability": "view",
      "type": "function"
    },
    {
      "inputs": [],
      "name": "DOMAIN_TYPEHASH",
      "outputs": [
        {
          "internalType": "bytes32",
          "name": "",
          "type": "bytes32"
        }
      ],
      "stateMutability": "view",
      "type": "function"
    },
    {
      "inputs": [],
      "name": "NAME",
      "outputs": [
        {
          "internalType": "string",
          "name": "",
          "type": "string"
        }
      ],
      "stateMutability": "view",
      "type": "function"
    },
    {
      "inputs": [],
      "name": "POOL_FEE",
      "outputs": [
        {
          "internalType": "uint24",
          "name": "",
          "type": "uint24"
        }
      ],
      "stateMutability": "view",
      "type": "function"
    },
    {
      "inputs": [],
      "name": "REFUND_TIMELOCK",
      "outputs": [
        {
          "internalType": "uint256",
          "name": "",
          "type": "uint256"
        }
      ],
      "stateMutability": "view",
      "type": "function"
    },
    {
      "inputs": [],
      "name": "RELEASE_TYPEHASH",
      "outputs": [
        {
          "internalType": "bytes32",
          "name": "",
          "type": "bytes32"
        }
      ],
      "stateMutability": "view",
      "type": "function"
    },
    {
      "inputs": [],
      "name": "USDC",
      "outputs": [
        {
          "internalType": "address",
          "name": "",
          "type": "address"
        }
      ],
      "stateMutability": "view",
      "type": "function"
    },
    {
      "inputs": [],
      "name": "VERSION",
      "outputs": [
        {
          "internalType": "string",
          "name": "",
          "type": "string"
        }
      ],
      "stateMutability": "view",
      "type": "function"
    },
    {
      "inputs": [
        {
          "internalType": "uint256",
          "name": "id",
          "type": "uint256"
        }
      ],
      "name": "cancelEscrow",
      "outputs": [],
      "stateMutability": "nonpayable",
      "type": "function"
    },
    {
      "inputs": [
        {
          "internalType": "address",
          "name": "freelancer",
          "type": "address"
        }
      ],
      "name": "createEscrow",
      "outputs": [
        {
          "internalType": "uint256",
          "name": "id",
          "type": "uint256"
        }
      ],
      "stateMutability": "nonpayable",
      "type": "function"
    },
    {
      "inputs": [
        {
          "internalType": "address",
          "name": "freelancer",
          "type": "address"
        },
        {
          "internalType": "uint256",
          "name": "_totalInstallments",
          "type": "uint256"
        }
      ],
      "name": "createEscrowWithInstallments",
      "outputs": [
        {
          "internalType": "uint256",
          "name": "id",
          "type": "uint256"
        }
      ],
      "stateMutability": "nonpayable",
      "type": "function"
    },
    {
      "inputs": [
        {
          "internalType": "uint256",
          "name": "id",
          "type": "uint256"
        },
        {
          "internalType": "address",
          "name": "token",
          "type": "address"
        },
        {
          "internalType": "uint256",
          "name": "amount",
          "type": "uint256"
        }
      ],
      "name": "depositFunds",
      "outputs": [],
      "stateMutability": "nonpayable",
      "type": "function"
    },
    {
      "inputs": [],
      "name": "escrowCount",
      "outputs": [
        {
          "internalType": "uint256",
          "name": "",
          "type": "uint256"
        }
      ],
      "stateMutability": "view",
      "type": "function"
    },
    {
      "inputs": [
        {
          "internalType": "uint256",
          "name": "",
          "type": "uint256"
        }
      ],
      "name": "escrows",
      "outputs": [
        {
          "internalType": "address",
          "name": "client",
          "type": "address"
        },
        {
          "internalType": "address",
          "name": "freelancer",
          "type": "address"
        },
        {
          "internalType": "uint256",
          "name": "usdcAmount",
          "type": "uint256"
        },
        {
          "internalType": "bool",
          "name": "funded",
          "type": "bool"
        },
        {
          "internalType": "bool",
          "name": "released",
          "type": "bool"
        },
        {
          "internalType": "bool",
          "name": "refunded",
          "type": "bool"
        },
        {
          "internalType": "uint256",
          "name": "deadline",
          "type": "uint256"
        },
        {
          "internalType": "uint256",
          "name": "totalInstallments",
          "type": "uint256"
        },
        {
          "internalType": "uint256",
          "name": "installmentsPaid",
          "type": "uint256"
        },
        {
          "internalType": "uint256",
          "name": "installmentAmount",
          "type": "uint256"
        },
        {
          "internalType": "uint256",
          "name": "paidAmount",
          "type": "uint256"
        }
      ],
      "stateMutability": "view",
      "type": "function"
    },
    {
      "inputs": [
        {
          "internalType": "uint256",
          "name": "id",
          "type": "uint256"
        },
        {
          "internalType": "uint256",
          "name": "nonce",
          "type": "uint256"
        },
        {
          "internalType": "uint256",
          "name": "amount",
          "type": "uint256"
        }
      ],
      "name": "hashRelease",
      "outputs": [
        {
          "internalType": "bytes32",
          "name": "",
          "type": "bytes32"
        }
      ],
      "stateMutability": "view",
      "type": "function"
    },
    {
      "inputs": [
        {
          "internalType": "uint256",
          "name": "id",
          "type": "uint256"
        },
        {
          "internalType": "string",
          "name": "reason",
          "type": "string"
        },
        {
          "internalType": "string",
          "name": "action",
          "type": "string"
        }
      ],
      "name": "logTransaction",
      "outputs": [],
      "stateMutability": "nonpayable",
      "type": "function"
    },
    {
      "inputs": [
        {
          "internalType": "uint256",
          "name": "id",
          "type": "uint256"
        }
      ],
      "name": "nonceOf",
      "outputs": [
        {
          "internalType": "uint256",
          "name": "",
          "type": "uint256"
        }
      ],
      "stateMutability": "view",
      "type": "function"
    },
    {
      "inputs": [
        {
          "internalType": "uint256",
          "name": "",
          "type": "uint256"
        }
      ],
      "name": "nonces",
      "outputs": [
        {
          "internalType": "uint256",
          "name": "",
          "type": "uint256"
        }
      ],
      "stateMutability": "view",
      "type": "function"
    },
    {
      "inputs": [
        {
          "internalType": "uint256",
          "name": "id",
          "type": "uint256"
        }
      ],
      "name": "releaseFunds",
      "outputs": [],
      "stateMutability": "nonpayable",
      "type": "function"
    },
    {
      "inputs": [
        {
          "internalType": "uint256",
          "name": "id",
          "type": "uint256"
        }
      ],
      "name": "releaseInstallment",
      "outputs": [],
      "stateMutability": "nonpayable",
      "type": "function"
    },
    {
      "inputs": [
        {
          "internalType": "uint256",
          "name": "id",
          "type": "uint256"
        },
        {
          "internalType": "uint256",
          "name": "amount",
          "type": "uint256"
        },
        {
          "internalType": "uint256",
          "name": "nonce",
          "type": "uint256"
        },
        {
          "internalType": "bytes",
          "name": "signature",
          "type": "bytes"
        }
      ],
      "name": "releaseWithSignature",
      "outputs": [],
      "stateMutability": "nonpayable",
      "type": "function"
    },
    {
      "inputs": [
        {
          "internalType": "uint256",
          "name": "id",
          "type": "uint256"
        }
      ],
      "name": "requestRefund",
      "outputs": [],
      "stateMutability": "nonpayable",
      "type": "function"
    },
    {
      "inputs": [],
      "name": "swapRouter",
      "outputs": [
        {
          "internalType": "contract ISwapRouter",
          "name": "",
          "type": "address"
        }
      ],
      "stateMutability": "view",
      "type": "function"
    }
  ],
  "bytecode": "0x60c06040523480156200001157600080fd5b506040516200231e3803806200231e83398101604081905262000034916200006e565b60016000556001600160a01b039182166080521660a052620000a6565b80516001600160a01b03811681146200006957600080fd5b919050565b600080604083850312156200008257600080fd5b6200008d8362000051565b91506200009d6020840162000051565b90509250929050565b60805160a05161221a6200010460003960008181610325015281816106a50152818161098901528181610dd601528181610e62015281816110c8015261151a0152600081816103eb01528181610e230152610f0d015261221a6000f3fe608060405234801561001057600080fd5b506004361061014d5760003560e01c806389a30271116100c3578063c31c9c071161007c578063c31c9c07146103e6578063dd1b9c4a1461040d578063e01824361461042a578063e8de843e1461043d578063f6a8419e14610450578063ffa1ad741461046357600080fd5b806389a302711461032057806393d76c0b1461035f57806398e5a9fd14610372578063a07fcc7014610385578063a3f4df7e14610398578063a4b2409e146103d357600080fd5b80633d7faa40116101155780633d7faa40146102b25780634d68282f146102bc5780634deb837e146102d157806357680665146102e4578063675ac67a146102f75780636ccbae5f1461030057600080fd5b8063012f52ee146101525780630902df911461022e578063141a468c1461026357806320606b70146102835780633644e515146102aa575b600080fd5b6101cb610160366004611d1d565b60016020819052600091825260409091208054918101546002820154600383015460048401546005850154600686015460078701546008909701546001600160a01b039889169890961696949560ff808616966101008704821696620100009004909116949392918b565b604080516001600160a01b039c8d1681529b909a1660208c0152988a01979097529415156060890152921515608088015290151560a087015260c086015260e0850152610100840152610120830152610140820152610160015b60405180910390f35b6102557fe0343ffe4b70afdd82760059f24d3c589686f0dcb3bead66a2b655ece91f65b281565b604051908152602001610225565b610255610271366004611d1d565b60036020526000908152604090205481565b6102557f8b73c3c69bb8fe3d512ecc4cf759cc79239f7b179b0ffacaa9a75d522b39400f81565b610255610483565b6102556203f48081565b6102cf6102ca366004611d1d565b610559565b005b6102556102df366004611d36565b610716565b6102cf6102f2366004611d1d565b6107bc565b61025560025481565b61025561030e366004611d1d565b60009081526003602052604090205490565b6103477f000000000000000000000000000000000000000000000000000000000000000081565b6040516001600160a01b039091168152602001610225565b61025561036d366004611d7e565b610a85565b6102cf610380366004611df1565b610c79565b6102cf610393366004611e6b565b610d38565b6103c66040518060400160405280600f81526020016e467265656c616e6365457363726f7760881b81525081565b6040516102259190611ef0565b6102cf6103e1366004611d1d565b611000565b6103477f000000000000000000000000000000000000000000000000000000000000000081565b610416610bb881565b60405162ffffff9091168152602001610225565b6102cf610438366004611d1d565b611139565b6102cf61044b366004611f0a565b611286565b61025561045e366004611f5a565b61163d565b6103c6604051806040016040528060018152602001603160f81b81525081565b604080518082018252600f81526e467265656c616e6365457363726f7760881b6020918201528151808301835260018152603160f81b9082015281517f8b73c3c69bb8fe3d512ecc4cf759cc79239f7b179b0ffacaa9a75d522b39400f818301527fe6c6994df3008e701e9b95216995b663b8b6a1da42e89f7755be2c6b764a6d4e818401527fc89efdaa54c0f20c7adf612882df0950f5a951637e0307cdcb4c672f298b8bc660608201524660808201523060a0808301919091528351808303909101815260c0909101909252815191012090565b6105616117d4565b600081815260016020526040902080546001600160a01b031633146105a15760405162461bcd60e51b815260040161059890611f75565b60405180910390fd5b600381015460ff166105c55760405162461bcd60e51b815260040161059890611f99565b6003810154610100900460ff16156105ef5760405162461bcd60e51b815260040161059890611fbd565b60058101541561065e5760405162461bcd60e51b815260206004820152603460248201527f5573652072656c65617365496e7374616c6c6d656e7420666f7220696e7374616044820152736c6c6d656e742d626173656420657363726f777360601b6064820152608401610598565b60038101805461ff0019166101001790556008810154600282015460009161068591611ffd565b6002830154600884015560018301549091506106ce906001600160a01b037f000000000000000000000000000000000000000000000000000000000000000081169116836117fe565b60408051848152602081018390527fd5840651550c173a8bf246eede440a59253bc61eadb2e8887168faad2fad631d910160405180910390a150506107136001600055565b50565b604080517fe0343ffe4b70afdd82760059f24d3c589686f0dcb3bead66a2b655ece91f65b260208201529081018490526060810183905260808101829052600090819060a00160405160208183030381529060405280519060200120905061077c610483565b60405161190160f01b6020820152602281019190915260428101829052606201604051602081830303815290604052805190602001209150509392505050565b6107c46117d4565b600081815260016020526040902080546001600160a01b031633146107fb5760405162461bcd60e51b815260040161059890611f75565b600381015460ff1661081f5760405162461bcd60e51b815260040161059890611f99565b6003810154610100900460ff161561086a5760405162461bcd60e51b815260206004820152600e60248201526d119d5b1b1e481c995b19585cd95960921b6044820152606401610598565b60008160050154116108b65760405162461bcd60e51b8152602060048201526015602482015274139bdd081a5b9cdd185b1b1b595b9d0b58985cd959605a1b6044820152606401610598565b80600501548160060154106109055760405162461bcd60e51b8152602060048201526015602482015274105b1b081a5b9cdd185b1b1b595b9d1cc81c185a59605a1b6044820152606401610598565b6007810154600582015461091b90600190611ffd565b82600601540361095f5760008260060154836007015461093b9190612010565b836002015461094a9190611ffd565b60038401805461ff0019166101001790559150505b60068201805490600061097183612027565b909155505060018201546109b2906001600160a01b037f000000000000000000000000000000000000000000000000000000000000000081169116836117fe565b60068201546001830154604080518481526001600160a01b03909216602083015285917f2153f81f950abaf7717b06315e039209430d91b2490d93007d1768195e730b0c910160405180910390a3336001600160a01b0316837f9a0ae045a1fc4f94db85b52e3275cd4687694e418b4525c94e54ab03978114d9610a39856006015461185d565b610a46866005015461185d565b604051602001610a57929190612040565b60408051601f1981840301815290829052610a71916120a0565b60405180910390a350506107136001600055565b60008082118015610a975750600c8211155b610ae35760405162461bcd60e51b815260206004820152601960248201527f496e76616c696420696e7374616c6c6d656e7420636f756e74000000000000006044820152606401610598565b60028054906000610af383612027565b9091555060408051610160810182523381526001600160a01b03861660208201526000918101829052606081018290526080810182905260a081019190915290915060c08101610b466203f480426120e0565b815260208082018590526000604080840182905260608085018390526080948501839052868352600180855292829020865181546001600160a01b03199081166001600160a01b0392831617835588870151958301805490911695821695909517909455868301516002820155868201516003820180549789015160a08a015161ffff1990991692151561ff0019169290921761010092151583021762ff0000191662010000981515989098029790971790965560c0870151600482015560e08701516005820155948601516006860155610120860151600786015561014090950151600890940193909355825185815233928101929092528616918101919091527fcc50a4e95294d36f3e612eabd37417678a3c52eb30d18039a0b2ed5cff4cfc0f910160405180910390a192915050565b600085815260016020526040902080546001600160a01b0316331480610cab575060018101546001600160a01b031633145b610ce85760405162461bcd60e51b815260206004820152600e60248201526d139bdd08185d5d1a1bdc9a5e995960921b6044820152606401610598565b336001600160a01b0316867f9a0ae045a1fc4f94db85b52e3275cd4687694e418b4525c94e54ab03978114d987878787604051610d28949392919061211c565b60405180910390a3505050505050565b610d406117d4565b600083815260016020526040902080546001600160a01b03163314610d775760405162461bcd60e51b815260040161059890611f75565b600381015460ff1615610dbd5760405162461bcd60e51b815260206004820152600e60248201526d105b1c9958591e48199d5b99195960921b6044820152606401610598565b610dd26001600160a01b038416333085611989565b60007f00000000000000000000000000000000000000000000000000000000000000006001600160a01b0316846001600160a01b031603610e14575081610f81565b610e486001600160a01b0385167f0000000000000000000000000000000000000000000000000000000000000000856119c8565b60408051610100810182526001600160a01b0386811682527f0000000000000000000000000000000000000000000000000000000000000000811660208301908152610bb88385019081523060608501908152426080860190815260a086018a8152600060c0880181815260e08901918252985163414bf38960e01b8152885188166004820152955187166024870152935162ffffff1660448601529151851660648501525160848401525160a4830152935160c48201529251811660e484015290917f00000000000000000000000000000000000000000000000000000000000000009091169063414bf38990610104016020604051808303816000875af1158015610f59573d6000803e3d6000fd5b505050506040513d601f19601f82011682018060405250810190610f7d919061214e565b9150505b6002820181905560038201805460ff19166001179055600582015415610fb6576005820154610fb09082612167565b60078301555b60408051868152602081018390527f06da3309189fa49284f335d2c2bcb4cb0b8ad2a59ad92a9bdebeeb8f1ceba511910160405180910390a15050610ffb6001600055565b505050565b6110086117d4565b600081815260016020526040902080546001600160a01b0316331461103f5760405162461bcd60e51b815260040161059890611f75565b8060040154421161107e5760405162461bcd60e51b8152602060048201526009602482015268546f6f206561726c7960b81b6044820152606401610598565b6003810154610100900460ff16156110a85760405162461bcd60e51b815260040161059890611fbd565b60038101805462ff0000191662010000179055805460028201546110fb917f00000000000000000000000000000000000000000000000000000000000000006001600160a01b03908116929116906117fe565b6040518281527f3d2a04f53164bedf9a8a46353305d6b2d2261410406df3b41f99ce6489dc003c9060200160405180910390a1506107136001600055565b600081815260016020526040902080546001600160a01b031633146111705760405162461bcd60e51b815260040161059890611f75565b600381015460ff16156111c55760405162461bcd60e51b815260206004820152601b60248201527f43616e6e6f742063616e63656c2066756e64656420657363726f7700000000006044820152606401610598565b6003810154610100900460ff16156111ef5760405162461bcd60e51b815260040161059890611fbd565b600381015462010000900460ff161561123d5760405162461bcd60e51b815260206004820152601060248201526f105b1c9958591e481c99599d5b99195960821b6044820152606401610598565b6001810180546001600160a01b03191690556040518281527fc41d93b8bfbf9fd7cf5bfe271fd649ab6a6fec0ea101c23b82a2a28eca2533a99060200160405180910390a15050565b61128e6117d4565b6000858152600160205260409020600381015460ff166112c05760405162461bcd60e51b815260040161059890611f99565b600381015462010000900460ff161561130e5760405162461bcd60e51b815260206004820152601060248201526f105b1c9958591e481c99599d5b99195960821b6044820152606401610598565b600085116113535760405162461bcd60e51b81526020600482015260126024820152710416d6f756e74206d757374206265203e20360741b6044820152606401610598565b60008681526003602052604090205484146113a05760405162461bcd60e51b815260206004820152600d60248201526c496e76616c6964206e6f6e636560981b6044820152606401610598565b6000816008015482600201546113b69190611ffd565b9050808611156114085760405162461bcd60e51b815260206004820152601860248201527f416d6f756e7420657863656564732072656d61696e696e6700000000000000006044820152606401610598565b6000611415888789610716565b9050600061145b86868080601f0160208091040260200160405190810160405280939291908181526020018383808284376000920191909152508693925050611a589050565b84549091506001600160a01b038083169116146114ae5760405162461bcd60e51b8152602060048201526011602482015270496e76616c6964207369676e617475726560781b6044820152606401610598565b60008981526003602052604081208054916114c883612027565b9190505550878460080160008282546114e191906120e0565b909155505060028401546008850154106115075760038401805461ff0019166101001790555b6001840154611543906001600160a01b037f0000000000000000000000000000000000000000000000000000000000000000811691168a6117fe565b6001840154604080518a8152602081018a90526001600160a01b03909216918b917f30cb424d5ab86c453343796406587d52588b6a8d9b7f457ef07ee2cf37740064910160405180910390a383546040516001600160a01b03909116908a907f9a0ae045a1fc4f94db85b52e3275cd4687694e418b4525c94e54ab03978114d99061162090604080825260159082015274436c69656e742d7369676e65642072656c6561736560581b6060820152608060208201819052601190820152707369676e61747572655f72656c6561736560781b60a082015260c00190565b60405180910390a3505050506116366001600055565b5050505050565b600280546000918261164e83612027565b9091555060408051610160810182523381526001600160a01b03851660208201526000918101829052606081018290526080810182905260a081019190915290915060c081016116a16203f480426120e0565b815260006020808301829052604080840183905260608085018490526080948501849052868452600180845293829020865181546001600160a01b03199081166001600160a01b0392831617835588860151968301805490911696821696909617909555868301516002820155868201516003820180549789015160a08a015161ffff1990991692151561ff0019169290921761010092151583021762ff0000191662010000981515989098029790971790965560c0870151600482015560e0870151600582015594860151600686015561012086015160078601556101409095015160089094019390935582518581523391810191909152908516918101919091527fcc50a4e95294d36f3e612eabd37417678a3c52eb30d18039a0b2ed5cff4cfc0f910160405180910390a1919050565b6002600054036117f757604051633ee5aeb560e01b815260040160405180910390fd5b6002600055565b6040516001600160a01b03838116602483015260448201839052610ffb91859182169063a9059cbb906064015b604051602081830303815290604052915060e01b6020820180516001600160e01b038381831617835250505050611a84565b6060816000036118845750506040805180820190915260018152600360fc1b602082015290565b8160005b81156118ae578061189881612027565b91506118a79050600a83612167565b9150611888565b60008167ffffffffffffffff8111156118c9576118c9612189565b6040519080825280601f01601f1916602001820160405280156118f3576020820181803683370190505b509050815b851561198057611909600182611ffd565b90506000611918600a88612167565b61192390600a612010565b61192d9088611ffd565b61193890603061219f565b905060008160f81b905080848481518110611955576119556121b8565b60200101906001600160f81b031916908160001a905350611977600a89612167565b975050506118f8565b50949350505050565b6040516001600160a01b0384811660248301528381166044830152606482018390526119c29186918216906323b872dd9060840161182b565b50505050565b604080516001600160a01b038416602482015260448082018490528251808303909101815260649091019091526020810180516001600160e01b031663095ea7b360e01b179052611a198482611af5565b6119c2576040516001600160a01b03848116602483015260006044830152611a4e91869182169063095ea7b39060640161182b565b6119c28482611a84565b600080600080611a688686611b44565b925092509250611a788282611b91565b50909150505b92915050565b600080602060008451602086016000885af180611aa7576040513d6000823e3d81fd5b50506000513d91508115611abf578060011415611acc565b6001600160a01b0384163b155b156119c257604051635274afe760e01b81526001600160a01b0385166004820152602401610598565b6000806000806020600086516020880160008a5af192503d91506000519050828015611b3a57508115611b2b5780600114611b3a565b6000866001600160a01b03163b115b9695505050505050565b60008060008351604103611b7e5760208401516040850151606086015160001a611b7088828585611c4e565b955095509550505050611b8a565b50508151600091506002905b9250925092565b6000826003811115611ba557611ba56121ce565b03611bae575050565b6001826003811115611bc257611bc26121ce565b03611be05760405163f645eedf60e01b815260040160405180910390fd5b6002826003811115611bf457611bf46121ce565b03611c155760405163fce698f760e01b815260048101829052602401610598565b6003826003811115611c2957611c296121ce565b03611c4a576040516335e2f38360e21b815260048101829052602401610598565b5050565b600080807f7fffffffffffffffffffffffffffffff5d576e7357a4501ddfe92f46681b20a0841115611c895750600091506003905082611d13565b604080516000808252602082018084528a905260ff891692820192909252606081018790526080810186905260019060a0016020604051602081039080840390855afa158015611cdd573d6000803e3d6000fd5b5050604051601f1901519150506001600160a01b038116611d0957506000925060019150829050611d13565b9250600091508190505b9450945094915050565b600060208284031215611d2f57600080fd5b5035919050565b600080600060608486031215611d4b57600080fd5b505081359360208301359350604090920135919050565b80356001600160a01b0381168114611d7957600080fd5b919050565b60008060408385031215611d9157600080fd5b611d9a83611d62565b946020939093013593505050565b60008083601f840112611dba57600080fd5b50813567ffffffffffffffff811115611dd257600080fd5b602083019150836020828501011115611dea57600080fd5b9250929050565b600080600080600060608688031215611e0957600080fd5b85359450602086013567ffffffffffffffff80821115611e2857600080fd5b611e3489838a01611da8565b90965094506040880135915080821115611e4d57600080fd5b50611e5a88828901611da8565b969995985093965092949392505050565b600080600060608486031215611e8057600080fd5b83359250611e9060208501611d62565b9150604084013590509250925092565b60005b83811015611ebb578181015183820152602001611ea3565b50506000910152565b60008151808452611edc816020860160208601611ea0565b601f01601f19169290920160200192915050565b602081526000611f036020830184611ec4565b9392505050565b600080600080600060808688031215611f2257600080fd5b853594506020860135935060408601359250606086013567ffffffffffffffff811115611f4e57600080fd5b611e5a88828901611da8565b600060208284031215611f6c57600080fd5b611f0382611d62565b6020808252600a9082015269139bdd0818db1a595b9d60b21b604082015260600190565b6020808252600a9082015269139bdd08199d5b99195960b21b604082015260600190565b60208082526010908201526f105b1c9958591e481c995b19585cd95960821b604082015260600190565b634e487b7160e01b600052601160045260246000fd5b81810381811115611a7e57611a7e611fe7565b8082028115828204841417611a7e57611a7e611fe7565b60006001820161203957612039611fe7565b5060010190565b7402932b632b0b9b2b21034b739ba30b63636b2b73a1605d1b815260008351612070816015850160208801611ea0565b6301037b3160e51b6015918401918201528351612094816019840160208801611ea0565b01601901949350505050565b6040815260006120b36040830184611ec4565b8281036020840152600b81526a1a5b9cdd185b1b1b595b9d60aa1b60208201526040810191505092915050565b80820180821115611a7e57611a7e611fe7565b81835281816020850137506000828201602090810191909152601f909101601f19169091010190565b6040815260006121306040830186886120f3565b82810360208401526121438185876120f3565b979650505050505050565b60006020828403121561216057600080fd5b5051919050565b60008261218457634e487b7160e01b600052601260045260246000fd5b500490565b634e487b7160e01b600052604160045260246000fd5b60ff8181168382160190811115611a7e57611a7e611fe7565b634e487b7160e01b600052603260045260246000fd5b634e487b7160e01b600052602160045260246000fdfea26469706673582212200ccff331ff7ca576153ca0f5f079bb92f9d8af53c9c9c6404c839721424693db64736f6c63430008150033",
  "linkReferences": {},
  "deployedLinkReferences": {}
}